{
  "address": "0xa8544190D8B7c84354eaCb0609d27E2Fc7d6f1B7",
  "abi": [
    {
      "inputs": [],
      "name": "mintAllTokens",
      "outputs": [],
      "stateMutability": "nonpayable",
      "type": "function"
    }
  ],
  "transactionHash": "0xb5a4a63a30d9abd408b83ae7aa976bbed44365a91e827d0cf5b0025780304b74",
  "args": [],
  "numDeployments": 11,
  "solcInputHash": "f8e07c356874b20749509422464ce0f7",
  "bytecode": "0x608060405273afab3903baa32d35d6e843be4144d65176e8641c6000806101000a81548173ffffffffffffffffffffffffffffffffffffffff021916908373ffffffffffffffffffffffffffffffffffffffff16021790555073eeae660205474b5e031e4be8b39d2afc5f718b8b600160006101000a81548173ffffffffffffffffffffffffffffffffffffffff021916908373ffffffffffffffffffffffffffffffffffffffff16021790555073092553a963a91fd4face7004dea8a37827477901600260006101000a81548173ffffffffffffffffffffffffffffffffffffffff021916908373ffffffffffffffffffffffffffffffffffffffff160217905550733900e1636a6d39b46fe427f44b0677746819d948600360006101000a81548173ffffffffffffffffffffffffffffffffffffffff021916908373ffffffffffffffffffffffffffffffffffffffff160217905550731fc8b98d03b4eb308267d642703173072cd8a5ff600460006101000a81548173ffffffffffffffffffffffffffffffffffffffff021916908373ffffffffffffffffffffffffffffffffffffffff1602179055503480156101b857600080fd5b50610421806101c86000396000f3fe608060405234801561001057600080fd5b506004361061002b5760003560e01c806365d5da7514610030575b600080fd5b61003861003a565b005b60008054906101000a900473ffffffffffffffffffffffffffffffffffffffff1673ffffffffffffffffffffffffffffffffffffffff166340c10f1933683635c9adc5dea000006040518363ffffffff1660e01b815260040161009e9291906103c2565b600060405180830381600087803b1580156100b857600080fd5b505af11580156100cc573d6000803e3d6000fd5b50505050600160009054906101000a900473ffffffffffffffffffffffffffffffffffffffff1673ffffffffffffffffffffffffffffffffffffffff166340c10f1933683635c9adc5dea000006040518363ffffffff1660e01b81526004016101369291906103c2565b600060405180830381600087803b15801561015057600080fd5b505af1158015610164573d6000803e3d6000fd5b50505050600260009054906101000a900473ffffffffffffffffffffffffffffffffffffffff1673ffffffffffffffffffffffffffffffffffffffff166340c10f1933683635c9adc5dea000006040518363ffffffff1660e01b81526004016101ce9291906103c2565b600060405180830381600087803b1580156101e857600080fd5b505af11580156101fc573d6000803e3d6000fd5b50505050600360009054906101000a900473ffffffffffffffffffffffffffffffffffffffff1673ffffffffffffffffffffffffffffffffffffffff166340c10f1933683635c9adc5dea000006040518363ffffffff1660e01b81526004016102669291906103c2565b600060405180830381600087803b15801561028057600080fd5b505af1158015610294573d6000803e3d6000fd5b50505050600460009054906101000a900473ffffffffffffffffffffffffffffffffffffffff1673ffffffffffffffffffffffffffffffffffffffff166340c10f1933683635c9adc5dea000006040518363ffffffff1660e01b81526004016102fe9291906103c2565b600060405180830381600087803b15801561031857600080fd5b505af115801561032c573d6000803e3d6000fd5b50505050565b600073ffffffffffffffffffffffffffffffffffffffff82169050919050565b600061035d82610332565b9050919050565b61036d81610352565b82525050565b6000819050919050565b6000819050919050565b6000819050919050565b60006103ac6103a76103a284610373565b610387565b61037d565b9050919050565b6103bc81610391565b82525050565b60006040820190506103d76000830185610364565b6103e460208301846103b3565b939250505056fea2646970667358221220b6dce85a8bd599947a8832bcbeaa35a4845c613352b2440ad4d75ba94f74f9ee64736f6c63430008130033",
  "devdoc": {
    "kind": "dev",
    "methods": {},
    "version": 1
  },
  "userdoc": {
    "kind": "user",
    "methods": {},
    "version": 1
  },
  "storageLayout": {
    "storage": [
      {
        "astId": 87,
        "contract": "contracts/mintAllTestTokens.sol:mintAllTestTokens",
        "label": "USDCAddress",
        "offset": 0,
        "slot": "0",
        "type": "t_address"
      },
      {
        "astId": 90,
        "contract": "contracts/mintAllTestTokens.sol:mintAllTestTokens",
        "label": "WETHAddress",
        "offset": 0,
        "slot": "1",
        "type": "t_address"
      },
      {
        "astId": 93,
        "contract": "contracts/mintAllTestTokens.sol:mintAllTestTokens",
        "label": "WBTCAddress",
        "offset": 0,
        "slot": "2",
        "type": "t_address"
      },
      {
        "astId": 96,
        "contract": "contracts/mintAllTestTokens.sol:mintAllTestTokens",
        "label": "MATICAddress",
        "offset": 0,
        "slot": "3",
        "type": "t_address"
      },
      {
        "astId": 99,
        "contract": "contracts/mintAllTestTokens.sol:mintAllTestTokens",
        "label": "AAVEAddress",
        "offset": 0,
        "slot": "4",
        "type": "t_address"
      }
    ],
    "types": {
      "t_address": {
        "encoding": "inplace",
        "label": "address",
        "numberOfBytes": "20"
      }
    }
  }
}