{
  "address": "0xeC89A72D73B08F31d7bEb30BF237dBeFa0AA3A90",
  "abi": [
    {
      "inputs": [],
      "name": "mintAllTokens",
      "outputs": [],
      "stateMutability": "nonpayable",
      "type": "function"
    }
  ],
  "transactionHash": "0x9fcd3981bfaa8f551b540564c481dbba514113e66eb1e5cc7d4f5cbfaebd2199",
  "args": [],
  "numDeployments": 2,
  "solcInputHash": "b1e79aa16944ea470ba6be7016de288b",
  "bytecode": "0x6080604052734d424df818920daa5e7c18d895feeff0a0ac76966000806101000a81548173ffffffffffffffffffffffffffffffffffffffff021916908373ffffffffffffffffffffffffffffffffffffffff16021790555073ffb5915aea9c1337b9b18a5eea52e26570529d61600160006101000a81548173ffffffffffffffffffffffffffffffffffffffff021916908373ffffffffffffffffffffffffffffffffffffffff16021790555073c8a83eb3b77c22c9189465db7f6f946592b30d4e600260006101000a81548173ffffffffffffffffffffffffffffffffffffffff021916908373ffffffffffffffffffffffffffffffffffffffff16021790555073eb1eb59a354a536288d84cbf6028a2469cdad741600360006101000a81548173ffffffffffffffffffffffffffffffffffffffff021916908373ffffffffffffffffffffffffffffffffffffffff16021790555073c4577ce8c2a7746bda75f678d5b951eb26e3567d600460006101000a81548173ffffffffffffffffffffffffffffffffffffffff021916908373ffffffffffffffffffffffffffffffffffffffff1602179055503480156101b857600080fd5b50610901806101c86000396000f3fe608060405234801561001057600080fd5b506004361061002b5760003560e01c806365d5da7514610030575b600080fd5b61003861003a565b005b60008054906101000a900473ffffffffffffffffffffffffffffffffffffffff1673ffffffffffffffffffffffffffffffffffffffff1663a0712d68683635c9adc5dea000006040518263ffffffff1660e01b815260040161009c919061076a565b600060405180830381600087803b1580156100b657600080fd5b505af11580156100ca573d6000803e3d6000fd5b50505050600160009054906101000a900473ffffffffffffffffffffffffffffffffffffffff1673ffffffffffffffffffffffffffffffffffffffff1663a0712d68683635c9adc5dea000006040518263ffffffff1660e01b8152600401610132919061076a565b600060405180830381600087803b15801561014c57600080fd5b505af1158015610160573d6000803e3d6000fd5b50505050600260009054906101000a900473ffffffffffffffffffffffffffffffffffffffff1673ffffffffffffffffffffffffffffffffffffffff1663a0712d68683635c9adc5dea000006040518263ffffffff1660e01b81526004016101c8919061076a565b600060405180830381600087803b1580156101e257600080fd5b505af11580156101f6573d6000803e3d6000fd5b50505050600360009054906101000a900473ffffffffffffffffffffffffffffffffffffffff1673ffffffffffffffffffffffffffffffffffffffff1663a0712d68683635c9adc5dea000006040518263ffffffff1660e01b815260040161025e919061076a565b600060405180830381600087803b15801561027857600080fd5b505af115801561028c573d6000803e3d6000fd5b50505050600460009054906101000a900473ffffffffffffffffffffffffffffffffffffffff1673ffffffffffffffffffffffffffffffffffffffff1663a0712d68683635c9adc5dea000006040518263ffffffff1660e01b81526004016102f4919061076a565b600060405180830381600087803b15801561030e57600080fd5b505af1158015610322573d6000803e3d6000fd5b5050505060008054906101000a900473ffffffffffffffffffffffffffffffffffffffff1673ffffffffffffffffffffffffffffffffffffffff1663095ea7b333683635c9adc5dea000006040518363ffffffff1660e01b815260040161038a9291906107c6565b6020604051808303816000875af11580156103a9573d6000803e3d6000fd5b505050506040513d601f19601f820116820180604052508101906103cd919061082c565b50600160009054906101000a900473ffffffffffffffffffffffffffffffffffffffff1673ffffffffffffffffffffffffffffffffffffffff1663095ea7b333683635c9adc5dea000006040518363ffffffff1660e01b81526004016104349291906107c6565b6020604051808303816000875af1158015610453573d6000803e3d6000fd5b505050506040513d601f19601f82011682018060405250810190610477919061082c565b50600260009054906101000a900473ffffffffffffffffffffffffffffffffffffffff1673ffffffffffffffffffffffffffffffffffffffff1663095ea7b333683635c9adc5dea000006040518363ffffffff1660e01b81526004016104de9291906107c6565b6020604051808303816000875af11580156104fd573d6000803e3d6000fd5b505050506040513d601f19601f82011682018060405250810190610521919061082c565b50600360009054906101000a900473ffffffffffffffffffffffffffffffffffffffff1673ffffffffffffffffffffffffffffffffffffffff1663095ea7b333683635c9adc5dea000006040518363ffffffff1660e01b81526004016105889291906107c6565b6020604051808303816000875af11580156105a7573d6000803e3d6000fd5b505050506040513d601f19601f820116820180604052508101906105cb919061082c565b50600460009054906101000a900473ffffffffffffffffffffffffffffffffffffffff1673ffffffffffffffffffffffffffffffffffffffff1663095ea7b333683635c9adc5dea000006040518363ffffffff1660e01b81526004016106329291906107c6565b6020604051808303816000875af1158015610651573d6000803e3d6000fd5b505050506040513d601f19601f82011682018060405250810190610675919061082c565b5060008054906101000a900473ffffffffffffffffffffffffffffffffffffffff1673ffffffffffffffffffffffffffffffffffffffff166323b872dd30336103e86040518463ffffffff1660e01b81526004016106d593929190610894565b6020604051808303816000875af11580156106f4573d6000803e3d6000fd5b505050506040513d601f19601f82011682018060405250810190610718919061082c565b50565b6000819050919050565b6000819050919050565b6000819050919050565b600061075461074f61074a8461071b565b61072f565b610725565b9050919050565b61076481610739565b82525050565b600060208201905061077f600083018461075b565b92915050565b600073ffffffffffffffffffffffffffffffffffffffff82169050919050565b60006107b082610785565b9050919050565b6107c0816107a5565b82525050565b60006040820190506107db60008301856107b7565b6107e8602083018461075b565b9392505050565b600080fd5b60008115159050919050565b610809816107f4565b811461081457600080fd5b50565b60008151905061082681610800565b92915050565b600060208284031215610842576108416107ef565b5b600061085084828501610817565b91505092915050565b6000819050919050565b600061087e61087961087484610859565b61072f565b610725565b9050919050565b61088e81610863565b82525050565b60006060820190506108a960008301866107b7565b6108b660208301856107b7565b6108c36040830184610885565b94935050505056fea26469706673582212208afac41234a727265e712695de3056c2099af5e5cfe2437832a9fd7551c9502464736f6c63430008130033",
  "devdoc": {
    "kind": "dev",
    "methods": {},
    "version": 1
  },
  "userdoc": {
    "kind": "user",
    "methods": {},
    "version": 1
  },
  "storageLayout": {
    "storage": [
      {
        "astId": 4,
        "contract": "contracts/mintAllTestTokens.sol:mintAllTestTokens",
        "label": "USDCAddress",
        "offset": 0,
        "slot": "0",
        "type": "t_address"
      },
      {
        "astId": 7,
        "contract": "contracts/mintAllTestTokens.sol:mintAllTestTokens",
        "label": "WETHAddress",
        "offset": 0,
        "slot": "1",
        "type": "t_address"
      },
      {
        "astId": 10,
        "contract": "contracts/mintAllTestTokens.sol:mintAllTestTokens",
        "label": "WBTCAddress",
        "offset": 0,
        "slot": "2",
        "type": "t_address"
      },
      {
        "astId": 13,
        "contract": "contracts/mintAllTestTokens.sol:mintAllTestTokens",
        "label": "MATICAddress",
        "offset": 0,
        "slot": "3",
        "type": "t_address"
      },
      {
        "astId": 16,
        "contract": "contracts/mintAllTestTokens.sol:mintAllTestTokens",
        "label": "AAVEAddress",
        "offset": 0,
        "slot": "4",
        "type": "t_address"
      }
    ],
    "types": {
      "t_address": {
        "encoding": "inplace",
        "label": "address",
        "numberOfBytes": "20"
      }
    }
  }
}